:100000000C942A000C9411040C943A040C9463048C
:100010000C9447000C9447000C9447000C94470044
:100020000C9447000C9447000C9447000C94470034
:100030000C9458080C9450070C9417070C94DE0687
:100040000C9447000C9447000C9447000C94470014
:100050000C94470011241FBECFE5D8E0DEBFCDBF12
:1000600010E0A0E6B0E0E6E0F7E102C005900D92F6
:10007000A238B107D9F722E0A2E8B0E001C01D9292
:10008000AB3AB207E1F70E9449000C94810B0C9443
:1000900000000E941F010E94660180E090E0089528
:1000A000FC01EC5BFF4F11821082349711821082A9
:1000B0003296118210820895FC01208131812F5FD8
:1000C0003F4F2032310519F4118210820895FC014E
:1000D000318320830895FC01208131812150310931
:1000E0002F3F310529F42FE130E03183208308953B
:1000F000FC01318320830895FC0180819181089562
:10010000FC01EC5BFF4F20813181232B59F43297A6
:10011000208131813297808191812817390721F020
:1001200080E0089580E0089581E008950F931F9383
:10013000CF93DF93EC010E948000811118C0CE01A3
:10014000805C9F4FDC01ED91FC91EE0FFF1FEC0FE7
:10015000FD1F008111810E945C00CC5BDF4F888114
:100160009981019799838883802F912F02C08EE017
:1001700090E0DF91CF911F910F910895FC01EC5B0E
:10018000FF4F208131812F31310559F43297208181
:1001900031813297808191812817390721F080E0E1
:1001A000089580E0089581E008950F931F93CF9301
:1001B000DF93EC018B010E94BE00811117C0CE01BC
:1001C0008E5B9F4FDC01ED91FC91EE0FFF1FEC0F5A
:1001D000FD1F118300830E945C00CC5BDF4F888190
:1001E000998101969983888381E001C08FE0DF9136
:1001F000CF911F910F91089580918200909183007B
:10020000A0918400B09185000197A109B109809364
:10021000820090938300A0938400B0938500FC013A
:10022000EA57FF4F10820895609182007091830019
:1002300040E050E086E890E00E9433080895EF9295
:10024000FF920F931F9340E062E083E00E94B101B0
:1002500040E063E083E00E94B1014091680050916A
:10026000690060916A0070916B0080916C009091C0
:100270006D000E947F0340E050E064E171E08CEF8C
:1002800090E00E940404E0906E00F0906F000091F6
:1002900070001091710020917200309173004091B4
:1002A0007400509175006091760070917700809194
:1002B0007800909179000E940A0680E690E00E9402
:1002C00092071F910F91FF90EF9008950E94D00622
:1002D0008E309105D9F34091820050918300609156
:1002E0008400709185008A019B010F5F1F4F2F4F83
:1002F0003F4F00938200109383002093840030933B
:100300008500FA01EA57FF4F8083E0CF0E94FE0884
:100310008AE790E00E949207089510E0D0E00E94E2
:100320002608C82F8E30D9F3D13150F0112321F097
:100330000E943A09D0E004C00E946F0911E0D0E0A9
:100340008C2F0E944509DF5FEACFF89408957894D6
:1003500008958FB78F778FBF08958FB780688FBF4D
:100360000895813001F130F08230B1F1833009F429
:100370004CC0089541110CC02AB381E090E002C046
:10038000880F991F6A95E2F7809582238ABB0895AA
:100390002AB381E090E002C0880F991F6A95E2F7C6
:1003A000822B8ABB089541110CC027B381E090E0F5
:1003B00002C0880F991F6A95E2F78095822387BB58
:1003C000089527B381E090E002C0880F991F6A95D5
:1003D000E2F7822B87BB089541110CC024B381E062
:1003E00090E002C0880F991F6A95E2F780958223FA
:1003F00084BB089524B381E090E002C0880F991F68
:100400006A95E2F7822B84BB089541110CC021B399
:1004100081E090E002C0880F991F6A95E2F780950D
:10042000822381BB089521B381E090E002C0880F50
:10043000991F6A95E2F7822B81BB0895813001F103
:1004400030F08230B1F1833009F44CC0089541118D
:100450000CC02BB381E090E002C0880F991F6A9511
:10046000E2F7809582238BBB08952BB381E090E067
:1004700002C0880F991F6A95E2F7822B8BBB089503
:1004800041110CC028B381E090E002C0880F991F91
:100490006A95E2F78095822388BB089528B381E0AE
:1004A00090E002C0880F991F6A95E2F7822B88BB03
:1004B000089541110CC025B381E090E002C0880F7F
:1004C000991F6A95E2F78095822385BB089525B32D
:1004D00081E090E002C0880F991F6A95E2F7822BB5
:1004E00085BB089541110CC022B381E090E002C0A9
:1004F000880F991F6A95E2F78095822382BB089541
:1005000022B381E090E002C0880F991F6A95E2F75C
:10051000822B82BB0895813089F028F08230C9F0A7
:10052000833011F108952BB381E090E002C0880F71
:10053000991F6A95E2F782278BBB089528B381E063
:1005400090E002C0880F991F6A95E2F7822788BB66
:10055000089525B381E090E002C0880F991F6A9545
:10056000E2F7822785BB089522B381E090E002C0C4
:10057000880F991F6A95E2F7822782BB0895813020
:1005800069F028F0823089F08330B1F0089561116C
:1005900002C01ABA08958FEF8ABB0895611102C094
:1005A00017BA08958FEF87BB0895611102C014BA7E
:1005B00008958FEF84BB0895611102C011BA0895A8
:1005C0008FEF81BB0895813041F028F0823039F0FF
:1005D000833039F008956BBB089568BB089565BBFF
:1005E000089562BB08958130D1F028F0823059F12E
:1005F0008330E9F150C049B381E090E09C01062EC0
:1006000002C0220F331F0A94E2F7842F90E0822366
:10061000932302C0959587956A95E2F7089546B3AE
:1006200081E090E09C01062E02C0220F331F0A9445
:10063000E2F7842F90E08223932302C0959587955B
:100640006A95E2F7089543B381E090E09C01062E9D
:1006500002C0220F331F0A94E2F7842F90E0822316
:10066000932302C0959587956A95E2F7089540B364
:1006700081E090E09C01062E02C0220F331F0A94F5
:10068000E2F7842F90E08223932302C0959587950B
:100690006A95E2F7089580E00895813051F028F0DE
:1006A000823059F0833069F008958BB380958BBB0D
:1006B000089588B3809588BB089585B3809585BBE0
:1006C000089582B3809582BB0895813041F028F06F
:1006D000823039F0833039F008C089B3089586B389
:1006E000089583B3089580B3089580E008958FB787
:1006F0008F778FBF08958FB780688FBF0895CF938E
:10070000DF9300D000D000D0CDB7DEB749835A8345
:100710006B837C838D839E838FB780688FBF898135
:10072000863031F58BB780648BBF8C81811107C017
:1007300085B78E7F85BF85B78D7F85BF1CC0833011
:1007400039F485B7816085BF85B78D7F85BF13C0BC
:10075000813039F485B78E7F85BF85B7826085BFCC
:100760000AC085B7816085BF85B7826085BF03C039
:100770008BB78F7B8BBF8A81873031F58BB78068D1
:100780008BBF8D81811107C085B78B7F85BF85B7F2
:10079000877F85BF1CC0833039F485B7846085BFEF
:1007A00085B7877F85BF13C0813039F485B78B7FCC
:1007B00085BF85B7886085BF0AC085B7846085BF5F
:1007C00085B7886085BF03C08BB78F778BBF8B8160
:1007D000853071F48BB780628BBF8D81823021F4BC
:1007E00084B7806484BF07C084B78F7B84BF03C095
:1007F0008BB78F7D8BBF26960FB6F894DEBF0FBEEA
:10080000CDBFDF91CF91089590938B0180938A01A2
:10081000709389016093880150938701409386010A
:1008200008951F920F920FB60F9211242F933F93AA
:100830004F935F936F937F938F939F93AF93BF93E8
:10084000EF93FF93E0918A01F0918B01309709F0CB
:100850000995FF91EF91BF91AF919F918F917F91FA
:100860006F915F914F913F912F910F900FBE0F901D
:100870001F9018951F920F920FB60F9211242F936D
:100880003F934F935F936F937F938F939F93AF9318
:10089000BF93EF93FF93E0918801F0918901309726
:1008A00009F00995FF91EF91BF91AF919F918F91C1
:1008B0007F916F915F914F913F912F910F900FBE5C
:1008C0000F901F9018951F920F920FB60F92112440
:1008D0002F933F934F935F936F937F938F939F9348
:1008E000AF93BF93EF93FF93E0918601F09187015F
:1008F000309709F00995FF91EF91BF91AF919F91CA
:100900008F917F916F915F914F913F912F910F90B8
:100910000FBE0F901F90189583B78F7B83BF83B74F
:10092000886083BF089583B78E7F83BF83B78D7F31
:1009300083BF83B78B7F83BF08958830910589F18A
:1009400060F48230910509F454C08330910509F4B4
:100950005AC0019709F060C01AC0883F910569F03C
:1009600020F48034910539F10895811521E0920732
:1009700061F18115944099F1089583B78E7F83BF0B
:1009800083B78D7F83BF83B78B7F83BF089583B782
:10099000816083BF83B78D7F83BF83B78B7F83BF26
:1009A000089583B78E7F83BF83B7826083BF83B789
:1009B0008B7F83BF089583B7816083BF83B78260D5
:1009C00083BF83B78B7F83BF089583B78E7F83BF39
:1009D00083B78D7F83BF83B7846083BF089583B758
:1009E000816083BF83B78D7F83BF83B7846083BFFC
:1009F000089583B78E7F83BF83B7826083BF83B739
:100A0000846083BF089583B7816083BF83B78260AA
:100A100083BF83B7846083BF08959C018DE78CBF3B
:100A200083B7816083BF83B7826083BF83B78B7FC7
:100A300083BF08C008B601FEFDCF98B7926098BF8B
:100A40002150310921153105A9F70E949304089519
:100A50009C0188E08CBF83B7816083BF83B78D7FA3
:100A600083BF83B78B7F83BF08C008B601FEFDCF6D
:100A700098B7926098BF2150310921153105A9F727
:100A80000E9493040895CF93DF9300D0CDB7DEB7D3
:100A90001A8219826130F1F4BC0180E090E00E947A
:100AA000860A20E030E040E051E40E94140B9B01F4
:100AB000AC0160E074E284E79BE40E94E50920E079
:100AC00030E040E85FE30E9478090E94570A7A8389
:100AD00069831DC0BC0180E090E00E94860A20E08E
:100AE00030E040E851E40E94140B9B01AC0160E04F
:100AF00074E284E79BE40E94E50920E030E040E8EE
:100B00005FE30E9478090E94570A7A83698380B55F
:100B10008F7780BD89819A8190BD89819A8189B9B9
:100B200080B5806880BD0F900F90DF91CF910895C0
:100B3000813031F48091AA02877F8093AA020895C0
:100B40008091AA0288608093AA020895813051F0B2
:100B500018F0823071F008958091AA028F7C809302
:100B6000AA0208958091AA028F7E80628093AA02D1
:100B700008958091AA0280638093AA020895873025
:100B800021F128F4853041F0863091F008958830C5
:100B900049F1893099F108958091AA02897F809363
:100BA000AA028AB18B7F8AB985E08093A902089551
:100BB0008091AA0282608B7F8093AA028AB18B7F88
:100BC0008AB986E08093A90208958091AA028D7F58
:100BD00084608093AA028AB18B7F8AB987E0809370
:100BE000A90208958091AA0286608093AA028AB120
:100BF0008B7F8AB988E08093A90208958091AA0228
:100C000086608093AA028AB184608AB989E0809361
:100C1000A9020895EF92FF920F931F93CF93DF9352
:100C2000CDB7DEB72C970FB6F894DEBF0FBECDBFA1
:100C3000E982FA820B831C832D833E834F8358877E
:100C400069877A878B879C8781B3826081BB1B8190
:100C5000612F89819A810E944305113019F48BB16B
:100C600082608BB98C81813019F48BB181608BB932
:100C70008D81813031F48AB180688AB98FB78068FC
:100C80008FBF8E81813031F48AB180648AB98FB789
:100C900080688FBF8F81813031F48AB180628AB9D8
:100CA0008FB780688FBF8885813019F48AB18061E1
:100CB0008AB98985813019F48AB188608AB98A85B0
:100CC0000E94BF058B850E94A6058C850E94980511
:100CD0008091AA0280688093AA0280BD82ED91E093
:100CE0000E9450008CE891E00E9450002C960FB6B4
:100CF000F894DEBF0FBECDBFDF91CF911F910F9152
:100D0000FF90EF9008955D9BFECF2091A9022930BE
:100D100041F42AB12E7F2AB990FF03C02AB1216085
:100D20002AB98CB908955F9BFECF2091A902293082
:100D300059F42BB13AB14CB12C7149F4369531705C
:100D4000932F80E0842B08958CB190E008958FEF6D
:100D50009FEF0895CF93DF93EC0106C0082E000C9F
:100D6000990B0E948306219688818111F7CFDF912C
:100D7000CF9108955D9B0EC02091A902293041F4C6
:100D80002AB12E7F2AB990FF03C02AB121602AB967
:100D90008CB90895BC0182ED91E00E94D5000895C0
:100DA0008CE891E00E948000811105C08CE891E000
:100DB0000E94960008958EE090E008951F920F9291
:100DC0000FB60F9211242F933F934F935F936F931E
:100DD0007F938F939F93AF93BF93EF93FF9382ED96
:100DE00091E00E948000811111C082ED91E00E948B
:100DF00096002091A902293041F42AB12E7F2AB908
:100E000090FF03C02AB121602AB98CB9FF91EF91FC
:100E1000BF91AF919F918F917F916F915F914F9112
:100E20003F912F910F900FBE0F901F9018951F921A
:100E30000F920FB60F9211242F933F934F935F930E
:100E40006F937F938F939F93AF93BF93EF93FF9392
:100E500082ED91E00E948000811111C082ED91E04D
:100E60000E9496002091A902293041F42AB12E7FD8
:100E70002AB990FF03C02AB121602AB98CB9FF9129
:100E8000EF91BF91AF919F918F917F916F915F9102
:100E90004F913F912F910F900FBE0F901F9018957B
:100EA0001F920F920FB60F9211242F933F934F93DF
:100EB0005F936F937F938F939F93AF93BF93CF93E2
:100EC000DF93EF93FF938CE891E00E94BE008111C5
:100ED00016C08091A902893061F48BB19AB12CB10E
:100EE0008C7169F496959170D92FC82FBE01622B31
:100EF00002C06CB170E08CE891E00E94D500FF91D7
:100F0000EF91DF91CF91BF91AF919F918F917F91A1
:100F10006F915F914F913F912F910F900FBE0F9066
:100F20001F9018951F93CF93DF93EC0183E692E017
:100F30000E9450008DE192E00E9450008A81882337
:100F4000A1F087B3806287BB87B3806887BB87B314
:100F5000806187BB88B3806188BB87B38F7B87BB89
:100F600081E080931C0210E10FC087B38F7D87BBA7
:100F700087B38F7787BB87B38F7E87BB87B3806448
:100F800087BB10921C0210E08881882319F00E9410
:100F9000AD0110688981811110648F81811101C0B8
:100FA00010628C81813009F418608D81813009F4E0
:100FB00014608E818370182B8B81882319F08EB179
:100FC00081608EB91DB9DF91CF911F9108959091E5
:100FD0001C02992319F098B39F7E98BB8FB9779B19
:100FE000FECF80911C02882319F088B3806188BBF2
:100FF0008FB10895CF93C82F83E692E00E94BE0080
:1010000081111FC083E692E00E948000882389F04E
:101010006C2F70E083E692E00E94D5008FEF8FB9CD
:1010200080911C02882379F088B3806188BB81E0BD
:101030000BC06C2F70E083E692E00E94D50081E047
:1010400003C080E001C081E0CF9108958DE192E07E
:101050000E948000811105C08DE192E00E949600FF
:1010600008958EE00895CF92DF92EF92FF920F9352
:101070001F93CF93DF937C018B016A01C0E0D0E026
:1010800007C0F701EC0FFD1F80810E94FA0721962F
:10109000C017D107B0F3D0921B02C0921A02DF91A1
:1010A000CF911F910F91FF90EF90DF90CF90089517
:1010B0001F920F920FB60F9211242F933F934F93CD
:1010C0005F936F937F938F939F93AF93BF93EF93B0
:1010D000FF936FB170E08DE192E00E94D50083E64E
:1010E00092E00E948000882341F0E0911A02F09182
:1010F0001B02309771F009950CC080911C02882367
:1011000019F088B38F7E88BB83E692E00E94960038
:101110008FB9FF91EF91BF91AF919F918F917F9187
:101120006F915F914F913F912F910F900FBE0F9054
:101130001F90189541E062E080E00E941E0281E06D
:1011400090E00E94280540E062E080E00E941E02DC
:101150000895EF92FF920F931F93CF93DF93482F41
:101160004170982F9270E92EF12CF594E794082F96
:10117000047010E015950795159507958870C82F90
:10118000D0E0D595C795D595C795D595C79560E01D
:1011900081E00E941E024E2D61E081E00E941E024D
:1011A000402F62E081E00E941E024C2F63E081E04C
:1011B0000E941E02DF91CF911F910F91FF90EF903F
:1011C0000895CF93C82FCF7082958F700E94A90881
:1011D00040E063E080E00E941E020E949A0884E6DC
:1011E00090E00E9428058C2F0E94A9080E949A086E
:1011F00084E690E00E942805CF9108950E948C0417
:1012000041E060E081E00E94B10141E061E081E005
:101210000E94B10141E062E081E00E94B10141E041
:1012200063E081E00E94B10141E063E080E00E9460
:10123000B10141E062E080E00E94B10140E062E083
:1012400080E00E941E0283E30E94E10882E30E9484
:10125000E10888E20E94E1088EE00E94E10881E056
:101260000E94E10880ED97E00E94280586E00E9438
:10127000E108089581E00E94E10883E00E94E1080E
:1012800080ED97E00E9428050895CF93C82FCF7076
:1012900082958F700E94A90841E063E080E00E947F
:1012A0001E020E949A0884E690E00E9428058C2F76
:1012B0000E94A9080E949A0884E690E00E942805EE
:1012C000CF910895CF93DF93EC0103C00E944509AD
:1012D000219688818111FACFDF91CF91089580EC1A
:1012E0000E94E1080895860F81500E94E108089548
:1012F0005058BB27AA270E9490090C94DA0A0E9432
:10130000CC0A38F00E94D30A20F039F49F3F19F438
:1013100026F40C94C90A0EF4E095E7FB0C94C30A7A
:10132000E92F0E94EB0A58F3BA1762077307840784
:10133000950720F079F4A6F50C940D0B0EF4E095CA
:101340000B2EBA2FA02D0B01B90190010C01CA017F
:10135000A0011124FF27591B99F0593F50F4503E2A
:1013600068F11A16F040A22F232F342F4427585F1C
:10137000F3CF469537952795A795F0405395C9F734
:101380007EF41F16BA0B620B730B840BBAF09150EC
:10139000A1F0FF0FBB1F661F771F881FC2F70EC08B
:1013A000BA0F621F731F841F48F48795779567955E
:1013B000B795F7959E3F08F0B0CF9395880F08F04A
:1013C0009927EE0F9795879508950E94F9090C9437
:1013D000DA0A0E94D30A58F00E94CC0A40F029F49D
:1013E0005F3F29F00C94C30A51110C940E0B0C941E
:1013F000C90A0E94EB0A68F39923B1F3552391F3CC
:10140000951B550BBB27AA2762177307840738F073
:101410009F5F5F4F220F331F441FAA1FA9F335D0D0
:101420000E2E3AF0E0E832D091505040E695001C84
:10143000CAF72BD0FE2F29D0660F771F881FBB1F3E
:10144000261737074807AB07B0E809F0BB0B802D1C
:10145000BF01FF2793585F4F3AF09E3F510578F048
:101460000C94C30A0C940E0B5F3FE4F3983ED4F344
:10147000869577956795B795F7959F5FC9F7880F1C
:10148000911D9695879597F90895E1E0660F771F6E
:10149000881FBB1F621773078407BA0720F0621BFF
:1014A000730B840BBA0BEE1F88F7E09508950E942A
:1014B000F30A88F09F5798F0B92F9927B751B0F0E9
:1014C000E1F0660F771F881F991F1AF0BA95C9F7C8
:1014D00014C0B13091F00E940D0BB1E008950C944E
:1014E0000D0B672F782F8827B85F39F0B93FCCF301
:1014F000869577956795B395D9F73EF49095809545
:10150000709561957F4F8F4F9F4F0895E89409C064
:1015100097FB3EF490958095709561957F4F8F4F26
:101520009F4F9923A9F0F92F96E9BB279395F6953C
:10153000879577956795B795F111F8CFFAF4BB0FBA
:1015400011F460FF1BC06F5F7F4F8F4F9F4F16C01E
:10155000882311F096E911C0772321F09EE8872FA8
:10156000762F05C0662371F096E8862F70E060E064
:101570002AF09A95660F771F881FDAF7880F9695DD
:10158000879597F9089597F99F6780E870E060E084
:1015900008959FEF80EC089500240A94161617060C
:1015A00018060906089500240A9412161306140654
:1015B00005060895092E0394000C11F4882352F0B7
:1015C000BB0F40F4BF2B11F460FF04C06F5F7F4F6F
:1015D0008F4F9F4F089557FD9058440F551F59F056
:1015E0005F3F71F04795880F97FB991F61F09F3F10
:1015F00079F087950895121613061406551FF2CF39
:101600004695F1DF08C0161617061806991FF1CF88
:1016100086957105610508940895E894BB276627AF
:101620007727CB0197F908950E94270B0C94DA0ACB
:101630000E94CC0A38F00E94D30A20F0952311F0C2
:101640000C94C30A0C94C90A11240C940E0B0E942A
:10165000EB0A70F3959FC1F3950F50E0551F629F01
:10166000F001729FBB27F00DB11D639FAA27F00DFB
:10167000B11DAA1F649F6627B00DA11D661F829F22
:101680002227B00DA11D621F739FB00DA11D621F07
:10169000839FA00D611D221F749F3327A00D611D24
:1016A000231F849F600D211D822F762F6A2F112406
:1016B0009F5750409AF0F1F088234AF0EE0FFF1F39
:1016C000BB1F661F771F881F91505040A9F79E3F90
:1016D000510580F00C94C30A0C940E0B5F3FE4F3A9
:1016E000983ED4F3869577956795B795F795E795E6
:1016F0009F5FC1F7FE2B880F911D9695879597F9EF
:061700000895F894FFCFEC
:101706000101010001010300060700020202802513
:1017160000000101000101080001010100000101B2
:021726000300BE
:00000001FF
